:020000040800F2
:1000000098960020A1010008C10C0008B90C000856
:10001000BD0C0008CF08000897160008000000007B
:10002000000000000000000000000000A50F000814
:10003000D90B000800000000510D0008D10F000886
:10004000BB010008BB010008BB010008BB010008A0
:10005000BB010008BB010008BB010008BB01000890
:10006000BB010008BB010008BB010008BB01000880
:10007000BB010008BB010008BB010008BB01000870
:10008000BB010008BB010008BB010008BB01000860
:10009000BB010008BB010008BB010008BB01000850
:1000A000BB010008BB010008BB010008BB01000840
:1000B000BB010008BB010008BB010008BB01000830
:1000C000BB010008BB010008BB010008BB01000820
:1000D000BB010008BB010008CD130008DD130008B8
:1000E000BB010008BB010008BB010008BB01000800
:1000F000BB010008BB010008BB010008BB010008F0
:10010000BB010008010F0008BB010008BB0100088B
:10011000BB010008BB010008BB010008BB010008CF
:10012000BB010008BB010008D5080008BB0100089E
:10013000BB010008BB010008BB010008BB010008AF
:10014000BB010008BB010008BB010008BB0100089F
:10015000BB010008BB010008BB010008ED1300084B
:10016000BB010008BB010008BB010008BB0100087F
:10017000BB010008BB010008BB010008BB0100086F
:10018000BB010008BB010008DFF810D000F062FBE3
:1001900000F06EF8004800471D8F00089896002078
:1001A0000648804706480047FEE7FEE7FEE7FEE711
:1001B000FEE7FEE7FEE7FEE7FEE7FEE7E90F0008E1
:1001C000890100082DE9F05F0546002092469B4614
:1001D00088460646814640241BE02846414647465D
:1001E000224600F062FA53465A46C01A914110D393
:1001F00011461846224600F049FA2D1A67EB01080D
:100200004F4622460120002100F040FA17EB00097A
:100210004E41201EA4F10104DFDC484631462A4647
:100220004346BDE8F09FD2B201E000F8012B491E21
:10023000FBD270470022F6E710B513460A46044683
:100240001946FFF7F0FF204610BD30B505462A4697
:100250000B4612F8010B13F8014B08B1A042F8D07D
:100260001CB1002802D06D1CF1E7284630BD00000B
:1002700070B5054C054D03E0206820448047241DDF
:10028000AC42F9D170BD00000C9200082C9200081D
:100290002DE9FE4F804681EA0300C00F0C46009016
:1002A00021F0004123F00045B8EB0200A94105D23E
:1002B0004046214690461C460B46024623F000402D
:1002C000104347D0270DC7F30A00C3F30A51029029
:1002D000401A019040286BDAC3F3130040F4801BEE
:1002E0000098924620B10023D2EB030A63EB0B0B7C
:1002F00001985946C0F14002504600F0C7F9064641
:100300000D4650465946019A00F0DFF910EB0800FF
:100310006141002487EA115284EAE7731A4340D00E
:10032000009A62B3019A012A4FEA075215DC001BBA
:1003300061EB02014FF0004202EA0752CDE90042B0
:10034000001C41F5801132462B4600F01CFA03B028
:10035000BDE8F08F40462146F9E7001B61EB020142
:10036000001C41F5801300185B412018A2F500170E
:1003700047EB030140EAD570B6196D4111E06D08F5
:100380004FEA360645EAC0754FEA0752001B61EB9B
:100390000201001C41F5801149084FEA30000019A4
:1003A000514132462B4603B0BDE8F04F00F0DCB9B6
:1003B0000098012240000023D0EB020263EBE073BF
:1003C000009821464FEAE074B8EB000061EB0401AD
:1003D000E9E783F000435BE781F0004158E72DE94E
:1003E000FE4F81EA030404F0004421F00041009430
:1003F0004FF0000B23F0004350EA01045ED052EAB4
:1004000003045BD0C3F30A54C1F30A552C44A4F28D
:10041000F3340194A0FB0254C1F3130141F48011A1
:10042000C3F3130343F4801301FB024400FB034EA8
:10043000840A970A44EA815447EA8357A4FB076871
:1004400002958D0A05FB07854FEA932C04FB0C549B
:100450002705029D4FEA065847EA1637B5EB08050F
:100460006EEB070C870E920E47EA811742EA831261
:10047000A7FB0201B6EB0B0164EB00042B0D43EA72
:100480000C335E1844EB1C50DA465146E7FB020180
:10049000C5F313044FEA0B3343EA14534FEA043213
:1004A000019C43EA0603A4F10C040294009CCDE9EC
:1004B00000B400F068F903B0BDE8F08F00200146F9
:1004C000F9E72DE9F04D81EA030404F0004B21F037
:1004D000004514464FF0000A23F0004150EA05029F
:1004E00020D054EA01021DD0C5F30A570246C5F3D5
:1004F0001303C1F31300C1F30A5640F4801543F40B
:100500008013A7EB0608101BD64608F2FD3873EBE4
:10051000050002D308F1010801E092185B41B8F12F
:10052000000F03DA00200146BDE8F08D00204FF4F3
:100530008011064684460EE0171B73EB050705D3B2
:10054000121B63EB050306434CEA010C49084FEA12
:10055000300092185B4150EA0107EDD152EA0300E6
:1005600012D082EA040083EA0501084305D0101B7B
:10057000AB4106D20122002306E000224FF00043E7
:1005800002E06FF0010253101AEB06004CEB085129
:1005900010EB0A0041EB0B01BDE8F04D00F0E4B8B0
:1005A00000F0004230F000400AD0C10D01F560714A
:1005B000C0F3160042EA0151C208400711437047D8
:1005C000002001467047000030B5041E71F10004A0
:1005D00004DB4FF00044404264EB0101141E73F150
:1005E000000405DB1C464FF00043524263EB04035A
:1005F0008B4208BF824230BD30B5041E71F1000449
:1006000004DB4FF00044404264EB0101141E73F11F
:10061000000405DB1C464FF00043524263EB040329
:10062000994208BF904230BD01F0004330B421F040
:10063000004150EA010206D00A0DA2F56072C1F332
:100640001301002A02DC30BC00207047440F44EA4A
:10065000C104C100E01830BC00EBC25000F04DB83E
:1006600030B50B46014600202022012409E021FA82
:1006700002F59D4205D303FA02F5491B04FA02F57F
:100680002844151EA2F10102F1DC30BD202A04DB52
:10069000203A00FA02F1002070479140C2F1200395
:1006A00020FA03F3194390407047202A04DB203AD4
:1006B00021FA02F00021704721FA02F3D040C2F182
:1006C00020029140084319467047202A06DBCB17C9
:1006D000203A41FA02F043EAE07306E041FA02F3FD
:1006E000D040C2F1200291400843194670470000F3
:1006F000004870477001002070470029A8BF70476C
:10070000401C490008BF20F00100704710B4B0FA47
:1007100080FC00FA0CF050EA010404BF10BC7047E2
:1007200049B1CCF1200421FA04F411FA0CF118BFFC
:10073000012121430843A3EB0C01CB1D4FEA0061CB
:100740004FEA102042BF002010BC704700EBC3509E
:1007500010440029A4BF10BC7047401C490008BFCA
:1007600020F0010010BC704710B5141E73F1000496
:1007700008DA401C41F1000192185B411A4301D193
:1007800020F0010010BD2DE9F04D92469B4611B1BD
:10079000B1FA81F202E0B0FA80F220329046FFF71F
:1007A00075FF04460F4640EA0A0041EA0B01534632
:1007B0005A46084313D0114653EA010019D0C8F134
:1007C00040025046FFF771FF05460E465046594617
:1007D0004246FFF75BFF084305D0012004E02046B6
:1007E0003946BDE8F08D0020054346EAE0762C430B
:1007F00037430A986305E40AA0EB08000022FD0ACB
:1008000044EA47540A3002D500200146E9E70105D1
:1008100010196941DDE9084500196941BDE8F04D4D
:10082000A2E7C1F30A52C1F3130140F2FF3341F4CE
:1008300080119A4202DA00200146704740F23343A9
:100840009A42A2F2334202DC5242FFF72EBFFFF778
:100850001DBF0000064C074D06E0E06840F00103B4
:1008600094E8070098471034AC42F6D3FFF790FCA9
:10087000EC9100080C92000870B58C1810F8015B20
:1008800015F0070301D110F8013B2A1106D110F829
:10089000012B03E010F8016B01F8016B5B1EF9D12D
:1008A0002B0705D40023521E0DD401F8013BFAE7B3
:1008B00010F8013BCB1A921C03E013F8015B01F81E
:1008C000015B521EF9D5A142D8D3002070BD00BFF4
:1008D000FEE7000010B50949094800F001F958B1D8
:1008E0004FF08151064800F00FF80449044800F029
:1008F00025F8044804F096FA10BD0000008020108E
:1009000040640240E27200200246094B9A4201D242
:10091000084801E00648103801F000531BB1064BAF
:100920000B40C36002E0044B0B4083607047000043
:1009300010640240006002407D0F7D0F0246094BAB
:100940009A4201D2084801E00648103801F00053ED
:100950001BB1064B0B40C36002E0044B0B408360AD
:100960007047000010640240006002407D0F7D0F60
:1009700021B1026842F00102026003E0026822F045
:100980000102026070470000016821F0010101606E
:100990000021016041608160C160016121214161EC
:1009A0004A49884204D13D21484A103A91608CE07E
:1009B00046491831884205D14FF47461434A103AD0
:1009C000916082E041493031884205D14FF4741181
:1009D0003E4A103A916078E03C494831884205D15E
:1009E0004FF07461394A103A91606EE037496031D6
:1009F000884204D13649354A103AD16065E033491E
:100A00007831884204D13349304A103AD1605CE0F1
:100A10002E499031884204D12F492C4A103AD16096
:100A200053E02A49A831884205D14FF03D51274A69
:100A3000103AD16049E02949884204D13D21274A32
:100A4000083A116041E025491831884205D14FF438
:100A50007461224A083A116037E0204930318842F7
:100A600005D14FF474111D4A083A11602DE01B495D
:100A70004831884205D14FF07461184A083A116034
:100A800023E016496031884204D11149134A121FEC
:100A900011601AE011497831884204D10D490F4A9A
:100AA000121F116011E00D499031884204D10A49AA
:100AB0000A4A121F116008E00849A831884204D18F
:100AC0004FF03D51054A121F1160704710600240FF
:100AD0003D000020400F002000003D201064024037
:100AE00070B50246002000240025124EB24201D209
:100AF000114B01E00F4B103B104E0E4036B11E263D
:100B000006EAD124166806EA040502E0566906F0F2
:100B1000800501F000560EB15C6800E01C68084ECC
:100B2000344004EA010616B10DB1012000E00020B6
:100B300070BD000010640240006002403C0F3C0F9A
:100B40007D0F7D0F10B501F080034BB122B14369D9
:100B500043F08003436103E0436923F08003436172
:100B600080290BD02AB1036801F01E0423430360DF
:100B700004E0036801F01E04A343036010BD0000FD
:100B800010B500220268134B1A40CC680B6823434F
:100B90004C6923438C692343CC6923430C6A234368
:100BA0004C6A23438C6A23434C6B23438C6B234353
:100BB0001A430260426922F00702D1E90B34234351
:100BC0001A4342610B6943604B6883608B68C36062
:100BD00010BD00003F801CF07047F0B50A460021B0
:100BE0000023002400BF3DE0012505FA01F315684C
:100BF00005EA03049C4234D105684F000326BE4039
:100C0000B543056015794E00B5400668354305606B
:100C10001579012D02D01579022D16D185684F0066
:100C20000326BE40B543856055794E00B5408668C1
:100C300035438560456801268E40B543456045686B
:100C400096798E40B6B235434560C5684F0003269D
:100C5000BE40B543C560D5794E00B540C668354342
:100C6000C560491C1029BFD3F0BDF0B50023002496
:100C70004D07ED0E02FA05F3CE1000F1200555F8F0
:100C800026504E07F70E0F26BE40B543CF1000F199
:100C9000200646F82750CE1000F1200555F82650C2
:100CA00045EA0304CE1000F1200545F82640F0BDCA
:100CB000418370470183704700BFFEE700BFFEE736
:100CC0007047000070B5002100230F22C4781CB3C8
:100CD000174C246804F4E064C4F5E064C4F307210D
:100CE000C1F10404E3B20A4144789C40E1B2847843
:100CF000144021430C07210E0E4C057861550478F1
:100D000004F01F050124AC4005786D11AD0005F11C
:100D1000E025C5F8004109E0047804F01F0501242E
:100D2000AC40054D0678761145F8264070BD0000B0
:100D30000CED00E000E400E080E100E00249014346
:100D4000024A1160704700000000FA050CED00E057
:100D50007047000029B1064A12680243044B1A602A
:100D600004E0034A12688243014B1A607047000096
:100D70003038024029B1064A12680243044B1A6017
:100D800004E0034A12688243014B1A607047000076
:100D90004038024029B1064A12680243044B1A60E7
:100DA00004E0034A12688243014B1A607047000056
:100DB0002038024029B1064A12680243044B1A60E7
:100DC00004E0034A12688243014B1A607047000036
:100DD0004438024029B1064A12680243044B1A60A3
:100DE00004E0034A12688243014B1A607047000016
:100DF00024380240F0B500210022002402250026FC
:100E00000223324F3F6807F00C0121B1042905D0BD
:100E1000082937D105E02E4F076036E02D4F0760D7
:100E200033E02A4F3F1F3F68C7F38056274F3F1FCD
:100E30003F6807F03F036EB1264FB7FBF3F7DFF8CB
:100E40008CC0ACF1040CDCF800C0CCF3881C07FBB0
:100E50000CF40CE01E4FB7FBF3F7DFF870C0ACF1F9
:100E6000040CDCF800C0CCF3881C07FB0CF4174F13
:100E70003F1F3F68C7F301477F1C7D00B4FBF5F7B8
:100E8000076002E0124F076000BF00BF0F4F3F68CE
:100E900007F0F0010909104F7A5C0768D7404760F6
:100EA0000A4F3F6807F4E051890A0B4F7A5C4768A4
:100EB000D7408760054F3F6807F46041490B064FF4
:100EC0007A5C4768D740C760F0BD00000838024030
:100ED0000024F40040787D01580100200149086099
:100EE00070470000382C014001460020034A126878
:100EF0000A400AB1012000E000207047342C014074
:100F000010B500F0A3FE10BD0021094B02681A6065
:100F10001A1D11686FF30A01D0E901231A43C3684F
:100F20001A4303691A431143014A121D11607047A5
:100F3000082C014021B1028842F04002028004E006
:100F400002884FF6BF731A400280704702460020A5
:100F500013890B400BB1012000E0002070470146CF
:100F6000888970478181704710B50022028802F499
:100F700041520B884C8823438C882343CC882343DD
:100F80000C8923434C8923438C892343CC892343F5
:100F90001A430280838B4FF2FF74234083830B8AB2
:100FA000038210BD7047042808D14FF0E021096981
:100FB00041F004014FF0E022116107E04FF0E02121
:100FC000096921F004014FF0E0221161704700002F
:100FD00000B504480068401C0249086001F052FC5A
:100FE00000BD0000B000002010B51548006840F4B6
:100FF0007000134908601348006840F0010011496F
:10100000086000200F49083108600E4800680E494A
:1010100008400C4908600D48091D0860081F006859
:1010200020F48020091F0860002006490C31086068
:1010300000F0D8FB4FF0006001498039086010BD16
:1010400088ED00E000380240FFFFF6FE103000247B
:1010500021B1028842F08002028004E002884FF64B
:101060007F731A400280704721B1028842F001026A
:10107000028004E002884FF6FE731A400280704737
:1010800031B1B0F8442042F40042A0F8442005E019
:10109000B0F84420C2F30E02A0F8442070470000CC
:1010A00070B5002400220023058C4FF6FE763540F3
:1010B0000584028C8388048B4FF68F752C40B51EF7
:1010C0002C400D882C43751E2A408D892A434D885B
:1010D0002A43104DA84202D00F4DA84213D14FF61B
:1010E000F7752A40CD892A434FF6FB752A408D8833
:1010F0002A434FF6FF652B404FF6FF552B400D8AD4
:101100002B434D8A2B43838004838D68456302847F
:1011100070BD000000000140000401400A460021AB
:10112000018B4FF6F773194011430183704700009C
:1011300070B5002400220023058C4FF6EF76354071
:101140000584028C8388048B48F6FF752C404FF68B
:10115000FF452C400D884FF6FF7606EA05252C4307
:101160004FF6DF752A408D8906EA05152A434D881A
:1011700006EA05152A43154DA84202D0144DA8428F
:101180001DD14FF67F752A40CD894FF6FF7606EACE
:1011900005152A434FF6BF752A408D8806EA0515C6
:1011A0002A434FF6FF352B404FF2FF752B400D8A37
:1011B00006EA85052B434D8A06EA85052B43838085
:1011C00004838D688563028470BD000000000140C7
:1011D000000401400A460021018B4FF2FF731940C1
:1011E0004FF6FF7303EA022319430183704700009F
:1011F00070B5002400220023058C4FF6FF663540B1
:101200000584028C8388848B4FF68F752C404FF6B3
:10121000FC752C400D882C434FF6FF552A408D89D4
:101220004FF6FF7606EA05252A434D8806EA05258E
:101230002A43154DA84202D0144DA8421DD14FF2A9
:10124000FF752A40CD894FF6FF7606EA05252A4329
:101250004FF6FF352A408D8806EA05252A434EF6CB
:10126000FF752B404DF6FF752B400D8A06EA0515DC
:101270002B434D8A06EA05152B43838084838D68B2
:10128000C563028470BD00000000014000040140FD
:101290000A460021818B4FF6F77319401143818371
:1012A0007047000070B5002200230024058C4EF624
:1012B000FF7635400584038C8488828B48F6FF7561
:1012C0002A404FF6FF452A400D884FF6FF7606EA82
:1012D00005252A434DF6FF752B408D8906EA053515
:1012E0002B434D8806EA05352B430A4DA84202D010
:1012F000094DA84208D14BF6FF752C400D8A4FF6D8
:10130000FF7606EA85152C43848082838D68056408
:10131000038470BD00000140000401400A46002122
:10132000818B4FF2FF7319404FF6FF7303EA0223DC
:101330001943818370474163704781637047C1637C
:10134000704701647047000000220288184B9842E1
:101350000ED0184B98420BD0B0F1804F08D0164BEE
:10136000984205D0154B984202D0154B984204D1B3
:101370004FF68F731A404B881A43124B984207D08E
:10138000114B984204D04FF6FF431A400B891A4381
:1013900002804B68C3620B880385054B984202D0DC
:1013A000044B984201D18B7A0386012383827047D4
:1013B000000001400004014000040040000800401B
:1013C000000C0040001000400014004010B502481E
:1013D00003F0D6FD10BD0000AA00002010B50248A1
:1013E00003F086FE10BD0000AA00002010B50248E0
:1013F00003F096FE10BD0000AA00002010B50022E8
:10140000002340F66A14A14200D100BF0A12012451
:101410009440A3B2DC43048010BD21B1828942F420
:101420000052828104E082894DF6FF731A40828166
:1014300070471AB1838A0B43838202E0838A8B430D
:101440008382704710B504462548844208D10121A3
:101450001020FFF7BFFC00211020FFF7BBFC3EE08F
:101460002048844209D101214804FFF793FC002160
:101470004FF40030FFF78EFC31E01B48844209D165
:1014800001218804FFF786FC00214FF48020FFF73C
:1014900081FC24E01548844209D10121C804FFF7EA
:1014A00079FC00214FF40020FFF774FC17E010488E
:1014B000844209D101210805FFF76CFC00214FF49B
:1014C0008010FFF767FC0AE00A48844207D1012137
:1014D0002020FFF77FFC00212020FFF77BFC10BDC0
:1014E000001001400044004000480040004C004013
:1014F000005000400014014002460020B1F5007F7A
:1015000000D100BF13880B400BB1012000E0002088
:10151000704770B50246002400230025002040F6E5
:101520006A16B14200D100BFC1F3421501F01F039A
:10153000012606FA03F3012D02D19689334006E015
:10154000022D02D1168A334001E0968A33400C12F4
:10155000012606FA04F41688344013B10CB10120B8
:1015600000E0002070BDF0B50346002400260025F1
:10157000002040F66A17B94200D100BF1846C1F3F7
:10158000421401F01F06012707FA06F5012C01D1CC
:101590000C3004E0022C01D1103000E014301AB1FC
:1015A00007682F43076002E00768AF430760F0BD9C
:1015B0002DE9FF4705460E460024A14600BFA04680
:1015C000B08900B100BF2C8A24F44054F088044351
:1015D0002C82AC8941F20C608443B0883189084385
:1015E000718908430443AC81AC8A24F44074B08907
:1015F0000443AC826846FFF7FDFB2048854202D0D9
:101600001F48854202D1DDF80C9001E0DDF808901A
:10161000A88900F4004040B109EBC90000EB0910B3
:1016200031684900B0FBF1F707E009EBC90000EBB6
:10163000091031688900B0FBF1F76420B7FBF0F0C6
:1016400004012009642101FB1078A88900F40040FE
:1016500040B1322000EBC800B0FBF1F000F0070011
:10166000044308E0322000EB08106421B0FBF1F0E5
:1016700000F00F0004432C81BDE8FF8700100140FB
:101680000014014001468888C0F308007047C1F388
:1016900008028280704700BFFEE700001748008AFA
:1016A000401C1649088208468088401C00B2888089
:1016B0000846C088401C00B2C8800846C089401C4B
:1016C00000B2C88108460089401C00B20881084663
:1016D0004089401C00B2488108468089401C00B205
:1016E000888108460078012804D108464078401CCB
:1016F000487002E001200149087070472073002003
:1017000010B52DED028B032000F02CF8B0EE408ACE
:10171000094803F0D7FF20B1B0EE480A074803F0AC
:1017200037FB074803F0C4FDB0EE480A054806F051
:10173000D1FCBDEC028B10BDD4730020C47000201E
:10174000347300206870002010B500F091FF10BDC8
:1017500010B5B7EE000A024803F09CFB10BD000074
:10176000AC88002010B5044604EB44001B4901EB93
:10177000800090ED000A04EB440001EB800080ED56
:10178000010A00F069F900EE100AB8EE400ADFED38
:10179000140A80EE201A04EB4400104901EB80008B
:1017A00080ED001A04EB440001EB800090ED000A8C
:1017B00004EB440001EB8000D0ED010A30EE600A3A
:1017C00004EB440001EB800080ED020A04EB4400CE
:1017D00001EB800090ED020A10BD0000F0720020C5
:1017E000002474490CB50020019000903448006832
:1017F00040F480303249086000BF3148006800F48E
:10180000003000900198401C0190009818B9019890
:10181000B0F5A04FF1D12A48006800F4003010B1B3
:101820000120009001E0002000900098012846D19E
:1018300023484030006840F0805021494031086022
:101840002048006840F440401E4908601C480830A9
:1018500000681B49083108600846006840F40040F1
:1018600008600846006840F4A05008601648091F48
:101870000860081F006840F08070091F086000BF02
:101880000F48006800F000700028F9D040F20570A1
:101890000E4908600A480830006820F00300084933
:1018A000083108600846006840F00200086000BF88
:1018B00003480830006800F00C000828F8D10CBD7F
:1018C000003802400070004019544007003C0240BC
:1018D00070B504460D462946204600F07DFB29469A
:1018E000204600F0E9FA2946204600F019FB294677
:1018F000204600F007FC2946204600F013FD70BD8D
:101900002DE9F34F81B007463C4600200090834606
:1019100081460026804628E020782D2802D148F014
:101920000208641C20782C2802D020782A2800D1B4
:101930001CE020782E2803D148F00108641C09E03F
:101940002078392802DC2078302803DA4FF00009AB
:1019500000260BE008F0010010B1701CC6B203E0D5
:1019600009F1010000F0FF09641CD5E700BF08F091
:10197000020000B17F1C00250EE0A9F10100401B10
:10198000C1B20A2000F098FE795D3039009A00FB60
:1019900001200090681CC5B24D45EEDB052E00DD30
:1019A00005260298067000250EE0701E401BC1B28D
:1019B0000A2000F081FE09F101012944795C3039E7
:1019C00000FB01BB681CC5B2B542EEDB31460A2004
:1019D00000F072FE009901FB00BA08F0020008B1A5
:1019E000CAF1000A5046BDE8FE8F000070B50546FA
:1019F00007E0174804681748046004F0450000B188
:101A000000E0F6E700BF0420FFF76EFA20B10420E3
:101A1000FFF764FA032070BD0120FFF765FA20B1DB
:101A20000120FFF75BFA0120F5E709482438006838
:101A3000A84201D01020EEE740F2FF50FFF74EFA27
:101A400003482038006808210840C0B2E3E70000DE
:101A5000342C0140F40000200B4A11684FF0E022C2
:101A600052694FF0E0239B69D21A4FF47A735A43BC
:101A70004FF0E0235B69B2FBF3F201EB4103C3EBF0
:101A8000C11302EBC3007047B000002010B504463C
:101A90000548848101460548FFF766FA012103489D
:101AA000FFF748FA10BD00008878002000300140A0
:101AB00030B52DED028B83B040249FED200BB0EEAE
:101AC000408AF0EE608A202C09D100F081F810EEF7
:101AD000105A2846FEF764FD41EC180B25E0012161
:101AE00002919DF80810012901D0012100E0002198
:101AF000084610B1012816D10AE0124901910021CF
:101B000000919DED000BB0EE408AF0EE608A0AE095
:101B10000C490091002101919DED000BB0EE408A2F
:101B2000F0EE608A00BF00BF00BFB0EE480AF0EEE2
:101B3000680A03B0BDEC028B30BD0000000000005D
:101B4000000000000000F0FF0246134610E010788D
:101B50002A2805D01078202802DB10787A2801DDA9
:101B6000FF20704710782C2801D1481EC1B2521CAA
:101B70000029ECD1D01AC0B2F3E710B5082000F06C
:101B800025F910BD00200CE00D4951F8201000EEA1
:101B9000101AB8EEC00A0B4901EB800181ED000A72
:101BA000401C0928F0DB002007E09FED070A0749E9
:101BB00001EB800181ED000A401C0328F5DB704732
:101BC000C89100088C710020000000008071002086
:101BD00008B5024800909DED000A08BD000080FF96
:101BE00010B52DED048B0446B0EE408AF0EE608A0D
:101BF000C4ED038A94ED032AF0EE421A94ED022A12
:101C0000B0EE421A94ED012AF0EE420A94ED002A59
:101C100032EE482AB0EE420A00F0E6FBB0EE409AFF
:101C200094ED000AD4ED030A94ED011A00EE810A46
:101C300084ED000A94ED010AD4ED030A00EE890A4E
:101C400084ED010ABDEC048B10BD000010B54FF40B
:101C50008070FFF749F978B34C480078012814D117
:101C600000204B4908600C2048604020886000201C
:101C7000C8604FF4806008610846FFF745F90C2002
:101C8000FFF7B4FE4349087002E0002041490870A4
:101C90004148006840F480703F490860081D0068B2
:101CA0004CF23A3188433C49091D086001203B4908
:101CB00008703848007810BDFFE70220FFF714F9DC
:101CC00078B10220FFF70AF93348001D00684CF292
:101CD0003A3188433049091D086002202D490870B7
:101CE000E9E70820FFF700F978B10820FFF7F6F8D8
:101CF0002948001D00684CF23A3188432649091DE5
:101D00000860042023490870D5E72020FFF7ECF88D
:101D100078B12020FFF7E2F81F48001D00684CF260
:101D20003A3188431C49091D08600620194908708A
:101D3000C1E71020FFF7D8F878B11020FFF7CEF8F0
:101D40001548001D00684CF23A3188431249091DBC
:101D5000086005200F490870ADE74FF40070FFF7E9
:101D6000C3F880B14FF40070FFF7B8F80A48001DBF
:101D700000684CF23A3188430749091D0860072082
:101D80000449087097E7002095E70000ED00002067
:101D900018750020EE000020382C0140EF000020D4
:101DA000DFED090AC0ED030ADFED070AC0ED020A04
:101DB000DFED050AC0ED000ADFED030AC0ED010A00
:101DC00080ED020A704700000000000010B50446D4
:101DD00000F00AFD0E4880ED000B00F019FE0D48E2
:101DE00080ED000A00F0B4FC0B4880ED000B00F021
:101DF00007FE0A4880ED000AFFF75AFE084880ED0A
:101E0000000BFFF7E5FE074880ED000A10BD00005B
:101E10003801002048010020280100204001002056
:101E200030010020440100200C490988B1F5487FA9
:101E300008DA0A490A880988491C084B19800849A8
:101E400088540AE00021054A118011460A88098851
:101E5000491C024B19800249885470472001002018
:101E60002989002070B50546002405E0601CC4B235
:101E7000C82C01DD002070BD02210E48FFF766F876
:101E80000028F3D029460B48FFF76CF8002405E042
:101E9000601CC4B2C82C01DD0020ECE7012105481C
:101EA000FFF754F80028F3D00248FFF758F8C0B203
:101EB000E1E7000000300140F8B505460F4616A1E5
:101EC0003846FEF7C2F9064606213046FFF73CFECB
:101ED0000446FF2C05D030196946FFF711FD85F83F
:101EE0004E0007213046FFF72FFE0446FF2C05D099
:101EF00030196946FFF704FD85F84F000921304687
:101F0000FFF722FE0446FF2C05D030196946FFF783
:101F1000F7FCC5F86300F8BD24475047474100006F
:101F20002DE9F8430546884629A14046FEF78DF97C
:101F3000064602213046FFF707FE0446FF2C05D077
:101F400030196946FFF7DCFC85F85C00002713E0D8
:101F5000F81CC1B23046FFF7F7FD0446FF2C08D04D
:101F600030196946FFF7CCFCC1B205F15000C155EC
:101F700000E003E0781CC7B20C2FE9DB00BF0F21A3
:101F80003046FFF7E1FD0446FF2C05D030196946C5
:101F9000FFF7B6FCA5F85D0010213046FFF7D4FD31
:101FA0000446FF2C05D030196946FFF7A9FCA5F8B7
:101FB0005F0011213046FFF7C7FD0446FF2C05D016
:101FC00030196946FFF79CFCA5F86100BDE8F8836D
:101FD00024475047534100002DE9FC5F07468A46DD
:101FE0004FF00008CDF804A044A10198FEF72DF9A8
:101FF0000646F079303800F0FF0B03213046FFF73A
:10200000A3FD0546FF2D04D070196946FFF778FC43
:1020100038704FF000096CE038A10198FEF715F90F
:10202000064600245CE0042000EB8400C1B2304688
:10203000FFF78AFD0546FF2D09D070196946FFF7A5
:102040005FFCC1B208EB8802781C815400E049E0D3
:10205000052000EB8400C1B23046FFF775FD054650
:10206000FF2D0AD070196946FFF74AFCC1B208EB90
:102070008802781C1044417000E033E0062000EB39
:102080008400C1B23046FFF75FFD0546FF2D0AD040
:1020900070196946FFF734FC81B208EB8802781C9E
:1020A0001044418000E01DE0072000EB8400C1B235
:1020B0003046FFF749FD0546FF2D0AD070196946E5
:1020C000FFF71EFCC1B208EB8802781C10440171B6
:1020D00000E007E008F1010000F0FF08601CC4B256
:1020E000042CA0DB00BF701C019009F1010000F07E
:1020F000FF09D94590DBBDE8FC9F0000244750470D
:10210000535600002DE9F0432DED028B81B00446BB
:10211000884681A14046FEF798F8074601213846D7
:10212000FFF712FD0546FF2D23D078196946FFF70A
:10213000E7FB81469DF800100A2000F0BDFAB9FBCC
:10214000F0F642F21070B6FBF0F0C1B2412001553A
:102150006420B6FBF0F06421B0FBF1F201FB120148
:10216000422001556420B6FBF0F100FB11614320D1
:10217000015503213846FFF7E7FC0546FF2D40D007
:1021800078196946FFF7BCFB06469DF80000801CE5
:10219000C1B20A2000F090FAB6FBF0F060649DF83E
:1021A0000000801CC1B20A2000F086FAB6FBF0F1F4
:1021B00000FB116000EE100AB8EE408A05210A20EB
:1021C00000F07AFA616C484300EE100AF8EE400A1B
:1021D0009DF80000C0F10500C1B20A2000F06CFAC1
:1021E00000EE100AB8EE400A20EE080A9FED4C1AE5
:1021F000C0EE011A30EEA10ABCEEC00A10EE100AC1
:10220000606404213846FFF79FFC0546FF2D02D08D
:10221000785D84F8480005213846FFF795FC0546AF
:10222000FF2D44D078196946FFF76AFB06469DF8F2
:102230000000801CC1B20A2000F03EFAB6FBF0F0AC
:1022400044F8490F9DF80000801CC1B20A2000F03C
:1022500033FAB6FBF0F100FB116000EE100AB8EEA5
:10226000400AB0EE408A05210A2000F025FA2168D4
:10227000484300EE100AF8EE400A9DF80000C0F155
:102280000500C1B20A2000F017FA00EE100AB8EEFD
:10229000400A20EE080A9FED221AC0EE011A30EE25
:1022A000A10ABCEEC00A10EE100A44F84909062142
:1022B0003846FFF749FC0546FF2D02D0785D84F8CB
:1022C0004D0009213846FFF73FFC0546FF2D1ED083
:1022D00078196946FFF714FB064642F21070B6FB08
:1022E000F0F0C1B2402001556420B6FBF0F064214B
:1022F000B0FBF1F201FB12013F2001556420B6FB57
:10230000F0F100FB116000F5FA60A4F83D0001B0A7
:10231000BDEC028BBDE8F0834750524D43000000F6
:1023200000007042F8B504460D4612A12846FDF79C
:102330008CFF064607213046FFF706FC0746FF2FB5
:1023400016D0F0196946FFF7DBFAA4F867009DF88C
:10235000000003280CDA9DF80000C0F10300C1B2B0
:102360000A2000F0A9F9B4F867104843A4F8670000
:10237000F8BD000024475056544700007FB568461A
:10238000FEF738FD4FF47A710198B0FBF1F4E408E0
:102390002146481EB0F1807F00D31BE0481E4FF05D
:1023A000E022506150170F22002807DA13071E0E93
:1023B0000B4B00F00F052D1F5E5503E013071D0E9C
:1023C000084B1D5400BF00204FF0E0229061072011
:1023D000106100BF6FF00400FEF7E5FD7FBD000057
:1023E00018ED00E000E400E010B52DED040B2DED3C
:1023F000108BB0EE41EAF0EE61EA2EEEAE0A20EE6E
:102400000E0AB0EE40AA9DED110A2EEE800AB0EE43
:10241000408A9DED100A30EE080AF0EE408AF5EE93
:10242000C08AF1EE10FA02D2FFEE00AA11E0F5EE3A
:10243000C08AF1EE10FA02DDF7EE00AA09E0F5EE2F
:10244000C08AF1EE10FA02D1DFED75AA01E0F0EEDC
:1024500068AA00BFB0EEE80AB2EE001AF0EE4A0A2F
:1024600041EE000A60EE8AFAB0EE6F0A05F0F5FF61
:1024700030EE4A0A60EE2A0AB0EE001A80EE810AB7
:1024800030EE08FA38EE8A9A78EECA9AB5EEC09A1B
:10249000F1EE10FA02D2BFEE00BA11E0B5EEC09A2A
:1024A000F1EE10FA02DDB7EE00BA09E0B5EEC09A1F
:1024B000F1EE10FA02D19FED5ABA01E0B0EE49BA3E
:1024C000F5EEC09AF1EE10FA02D2FFEE00BA11E07A
:1024D000F5EEC09AF1EE10FA02DDF7EE00BA09E06F
:1024E000F5EEC09AF1EE10FA02D1DFED4DBA01E03F
:1024F000F0EE69BA3BEE6B0AB0EE001AC0EE010ACC
:1025000038EE280A30EE4F1AB0EE4F0A01EE200ADC
:10251000B0EE408A38EE0A0AB0EE409A38EE4A0A27
:10252000F0EE409AB5EEC08AF1EE10FA02D2BFEE9C
:1025300000CA11E0B5EEC08AF1EE10FA02DDB7EE86
:1025400000CA09E0B5EEC08AF1EE10FA02D19FEDA3
:1025500034CA01E0B0EE48CAB5EEC09AF1EE10FA06
:1025600002D2FFEE00CA11E0B5EEC09AF1EE10FA09
:1025700002DDF7EE00CA09E0B5EEC09AF1EE10FAFE
:1025800002D1DFED27CA01E0F0EE49CAF5EEC09AAC
:10259000F1EE10FA02D2BFEE00DA11E0F5EEC09AC9
:1025A000F1EE10FA02DDB7EE00DA09E0F5EEC09ABE
:1025B000F1EE10FA02D19FED1ADA01E0B0EE69DA1D
:1025C000B5EEC08AF1EE10FA02D2FFEE00DA11E0A9
:1025D000B5EEC08AF1EE10FA02DDF7EE00DA09E09E
:1025E000B5EEC08AF1EE10FA02D1DFED0DDA01E0AE
:1025F000F0EE48DA88EE0A0A30EE4C0AF1EE4E0AA6
:1026000020EE200A7CEECD0AB0EE001AC0EE811A50
:1026100020EE210A0EEE6D0ABDEC108B1FBD0000EE
:102620000000000010B500F0E1F910BDF0EE400A26
:102630009FED020A20EE800A7047000034FA8E3CBB
:1026400010B5044603E04FF47A7000F005F820005E
:10265000A4F10104F7D110BD30B50446FFF7FCF931
:10266000054600BFFFF7F8F9401BA042FAD330BD82
:1026700070B50D480088B0F5C87F13DD0A4805889D
:10268000002405E00948005D09490855601C84B232
:10269000AC42F7DB0020044908800549085505488D
:1026A000FFF716F970BD00002001002029890020E5
:1026B000498C0020C088002010B50246012000E0AF
:1026C00050430B00A1F10104E1B2F9D110BD0000AB
:1026D00010B500F0BBF91D48B0F90400022804DB76
:1026E00000F0B6F90020194988801848B0F90600B2
:1026F000052802DB00201549C8801448B0F90E00F7
:10270000082804DB00F0C0F900201049C8810F48F8
:10271000B0F908000A2804DBFEF7F2FF00200B499D
:1027200008810A48B0F90A00142804DBFFF70CF806
:102730000020064948810548B0F90C00322804DB26
:10274000FFF706F800200149888110BD20730020A2
:1027500030B52DED028B83B040249FED200BB0EE01
:10276000408AF0EE608A202C09D100F049F910EE81
:10277000105A2846FDF714FF41EC180B25E0012103
:1027800002919DF80810012901D0012100E00021EB
:10279000084610B1012816D10AE012490191002122
:1027A00000919DED000BB0EE408AF0EE608A0AE0E9
:1027B0000C490091002101919DED000BB0EE408A83
:1027C000F0EE608A00BF00BF00BFB0EE480AF0EE36
:1027D000680A03B0BDEC028B30BD000000000000B1
:1027E000000000000000F07F30B52DED028B83B0BB
:1027F00040249FED210BB0EE408AF0EE608A202C41
:1028000009D100F005F910EE105A2846FDF7C8FE70
:1028100041EC180B27E0012102919DF808100129D5
:1028200001D0012100E00021084610B1012818D193
:102830000AE013490191002100919DED000BB0EEDB
:10284000408AF0EE608A0CE06FF0004100914FF09A
:10285000FF3101919DED000BB0EE408AF0EE608AF1
:1028600000BF00BF00BFB0EE480AF0EE680A03B038
:10287000BDEC028B30BD0000000000000000000035
:102880000000F8FF00B51C48006840F2E7318842BC
:1028900007DA19480068401C17490860FEF7FEFE79
:1028A00029E0002014490860144800683B2805DA34
:1028B00012480068401C114908601CE000200F49C4
:1028C00008600F4800683B2805DA0D480068401C86
:1028D0000B4908600FE000200949086009480068BA
:1028E000172805DA07480068401C0649086002E01E
:1028F00000200449086000BDC4000020C000002082
:10290000BC000020B80000201CB501210846FEF7DD
:1029100021FA01210803FEF74DFA052211462B4842
:10292000FEF7A3F9052206212848FEF79EF90522A5
:1029300007212648FEF799F9E020009002208DF843
:1029400004008DF8050000208DF8060002208DF8A7
:10295000070069461D48FEF740F9E0211B48FEF7D5
:10296000A9F91020009001208DF8040000208DF8B6
:10297000060001208DF8070000208DF8050069464B
:102980001248FEF72AF910211048FEF793F90020AB
:102990000F4908804FF48270488000208880022010
:1029A000C8800120088140024881382088810020A9
:1029B000C881072008820748FEF7D6FA012105489A
:1029C000FEF7B8FAFF20FFF74DFA1CBD00000240E9
:1029D000887800200030014000BF00BF7047000031
:1029E000014903C9704700003800002070B5FFF7A7
:1029F000F7FF04464FF47A720023FDF7E3FB70BD46
:102A000008B54FF0FF4000909DED000A08BD0000A2
:102A10000CB500210191012100919DF800100129C0
:102A200001D0012100E00021084610B1012807D1A2
:102A300002E00549019103E06FF00041019100BF00
:102A400000BF9DED010A0CBD0000C0FF70470000F3
:102A500010B52DED028B094803F056FC0120FEF75E
:102A600081FEB0EE408A064800F0B4FEB0EE480A9F
:102A7000044801F0CDFABDEC028B10BD7C73002040
:102A8000106F00200C00002010B52DED028B0020EF
:102A9000FEF768FEB0EE408ABDEC028B10BD000070
:102AA00010B58AB00446242301AA1748216900F012
:102AB000D3FC9DED010A154880ED020A9DED020A46
:102AC00080ED030A9DED030A80ED040A9DED040AE2
:102AD00080ED120A9DED050A80ED130A9DED060AB0
:102AE00080ED140A9DED070A80ED220A9DED080A8B
:102AF00080ED230A9DED090A80ED240A04A005F06B
:102B000051FC0AB010BD000018010020880100200F
:102B1000BDC7B6C8BBB7B2CECAFDB6C1C8A1B3C99E
:102B2000B9A62E2E2E2E0A0010B58AB004461848DB
:102B300090ED020A8DED010A90ED030A8DED020A77
:102B400090ED040A8DED030A90ED120A8DED040A52
:102B500090ED130A8DED050A90ED140A8DED060A2D
:102B600090ED220A8DED070A90ED230A8DED080AFB
:102B700090ED240A8DED090A242301AA0548216954
:102B800000F078FC04A005F00DFC0AB010BD0000B8
:102B90008801002018010020BDC7B6C8BBB7706906
:102BA0006420B4E6C8EBB3C9B9A62E2E2E0A0000E5
:102BB00010B504460020606060680C30A060A0681A
:102BC0000C30E060E06824302061206924306061CE
:102BD00060691830A061A0691830E061204600F0FB
:102BE0001DF90120FFF72CFD204600F0A9F8012077
:102BF000FFF726FD204600F081F90120FFF720FDB8
:102C00002046FFF74DFF0120FFF71AFD204600F098
:102C10000DF80120FFF714FD204600F0A5FA012071
:102C2000FFF70EFD204600F063FA10BD10B58AB024
:102C30000446242301AA1748616900F00DFC9DEDAC
:102C4000010A154880ED020A9DED020A80ED030A93
:102C50009DED030A80ED040A9DED040A80ED120A41
:102C60009DED050A80ED130A9DED060A80ED140A1C
:102C70009DED070A80ED220A9DED080A80ED230AEA
:102C80009DED090A80ED240A04A005F08BFB0AB033
:102C900010BD00001801002048020020BDC7CBD99C
:102CA000B6C8BBB7B2CECAFDB6C1C8A1B3C9B9A632
:102CB0002E2E2E2E2E0A000010B58AB0044618487B
:102CC00090ED020A8DED010A90ED030A8DED020AE6
:102CD00090ED040A8DED030A90ED120A8DED040AC1
:102CE00090ED130A8DED050A90ED140A8DED060A9C
:102CF00090ED220A8DED070A90ED230A8DED080A6A
:102D000090ED240A8DED090A242301AA0548616982
:102D100000F0B0FB04A005F045FB0AB010BD0000B8
:102D20004802002018010020BDC7B6C8BBB77069B3
:102D30006420B4E6C8EBB3C9B9A62E2E2E0A000053
:102D400010B52DED028B84B004460C2301AA224855
:102D5000616800F081FB9DED010A204880ED1F0AAB
:102D60009DED020A80ED200A9DED030A80ED210A07
:102D700090ED1F0A10EE101A0846FDF711FC41EC09
:102D8000180B53EC182B16A005F00CFB134890ED14
:102D9000200A10EE101A0846FDF702FC41EC180B51
:102DA00053EC182B11A005F0FDFA0C4890ED210A08
:102DB00010EE101A0846FDF7F3FB41EC180B53EC2C
:102DC000182B0DA005F0EEFA0EA005F0EBFA04B0FA
:102DD000BDEC028B10BD000018010020C077002060
:102DE00061636320782025660A0000006163632028
:102DF000792025660A000000616363207A20256639
:102E00000A000000BCD3BCC6B6C1C8A1CAFDBEDD65
:102E1000B3C9B9A62E2E2E2E2E0A000010B52DED08
:102E2000028B84B004460C2301AA2248A16800F05A
:102E300013FB9DED010A204880ED1C0A9DED020A5E
:102E400080ED1D0A9DED030A80ED1E0A90ED1C0A1F
:102E500010EE101A0846FDF7A3FB41EC180B53ECDB
:102E6000182B16A005F09EFA134890ED1D0A10EEDF
:102E7000101A0846FDF794FB41EC180B53EC182B85
:102E800011A005F08FFA0C4890ED1E0A10EE101AF2
:102E90000846FDF785FB41EC180B53EC182B0DA0F1
:102EA00005F080FA0EA005F07DFA04B0BDEC028BAF
:102EB00010BD000018010020C07700206779722043
:102EC000782025660A00000067797220792025663F
:102ED0000A000000677972207A2025660A00000047
:102EE000CDD3C2DDD2C7B6C1C8A1CAFDBEDDB3C94C
:102EF000B9A62E2E2E2E2E0A0000000010B52DEDA4
:102F0000028B84B004460C2301AA2248E16800F039
:102F1000A3FA9DED010A204880ED0A0A9DED020A00
:102F200080ED0B0A9DED030A80ED0C0A90ED0A0A74
:102F300010EE101A0846FDF733FB41EC180B53EC6A
:102F4000182B16A005F02EFA134890ED0B0A10EE80
:102F5000101A0846FDF724FB41EC180B53EC182B14
:102F600011A005F01FFA0C4890ED0C0A10EE101A93
:102F70000846FDF715FB41EC180B53EC182B0DA080
:102F800005F010FA0EA005F00DFA04B0BDEC028BAE
:102F900010BD000018010020347300206D6167200F
:102FA000782025660A0000006D616720792025667B
:102FB0000A0000006D6167207A2025660A00000083
:102FC000C2DEC5CCC1E3C6AEBBBAB4E6CAFDBEDD47
:102FD000B6C1C8A1B3C9B9A62E2E2E2E2E0A000046
:102FE00011B52DED040B83B004460C210CA005F0A7
:102FF000D9F99DED030A8DED000A9DED040A8DEDD2
:10300000010A9DED050A8DED020A0C236A46064869
:10301000616800F02FFA05A005F0C4F908B010BDF2
:10302000642025640A00000018010020BCD3BCC63F
:10303000B4E6C8EBCAFDBEDDB3C9B9A62E2E2E2E4E
:103040002E0A000011B52DED040B83B004469DED52
:10305000030A8DED000A9DED040A8DED010A9DED38
:10306000050A8DED020A0C236A460448A16800F0A7
:1030700001FA03A005F096F908B010BD1801002070
:10308000CDD3C2DDD2C7B4E6C8EBCAFDBEDDB3C93D
:10309000B9A62E2E2E2E2E0A0000000011B52DED01
:1030A000040B83B004469DED030A8DED000A9DEDEF
:1030B000040A8DED010A9DED050A8DED020A0C232F
:1030C0006A460448E16800F0D5F903A005F06AF902
:1030D00008B010BD18010020C2DEC5CCCAFDBEDD9F
:1030E000B4E6C8EBB3C9B9A62E2E2E2E0A000000F6
:1030F00010B586B0044618236A461148E16900F00D
:10310000ABF99DED000A0F4880ED120A9DED010A12
:1031100080ED130A9DED020A80ED140A9DED030A6D
:10312000094880ED120A9DED040A80ED130A9DED19
:10313000050A80ED140A05A005F034F906B010BDAB
:1031400018010020686F0020E86F0020CEBBD6C3B6
:10315000CBD9B6C870696420B6C1C8A1B3C9B9A635
:103160002E2E2E0A0000000010B586B0044618234B
:103170006A461148A16900F06FF99DED000A0F48F9
:1031800080ED020A9DED010A80ED030A9DED020A21
:1031900080ED040A9DED030A094880ED020A9DEDC9
:1031A000040A80ED030A9DED050A80ED040A05A0DE
:1031B00005F0F8F806B010BD18010020686F002077
:1031C000E86F0020CEBBD6C3CBD9B6C870696420E7
:1031D000B6C1C8A1B3C9B9A62E2E2E0A00000000A0
:1031E00010B586B00446124890ED120A8DED000A23
:1031F00090ED130A8DED010A90ED140A8DED020A8F
:103200000C4890ED120A8DED030A90ED130A8DED36
:10321000040A90ED140A8DED050A18236A46064843
:10322000E16900F027F905A005F0BCF806B010BD73
:10323000686F0020E86F002018010020CEBBD6C3C5
:10324000CBD9B6C870696420B4E6C8EBB3C9B9A6D7
:103250002E2E2E0A0000000010B586B0044612483B
:1032600090ED020A8DED000A90ED030A8DED010A42
:1032700090ED040A8DED020A0C4890ED020A8DEDE6
:10328000030A90ED030A8DED040A90ED040A8DED1A
:10329000050A18236A460648A16900F0EBF805A064
:1032A00005F080F806B010BD686F0020E86F0020C0
:1032B00018010020CEBBD6C3CBD9B6C87069642034
:1032C000B4E6C8EBB3C9B9A62E2E2E0A0000000042
:1032D0002DE9F04180460E4614461F461021104845
:1032E000FDF7E6FC0320FEF7BDFDC4F30740FEF743
:1032F000B9FDC4F30720FEF7B5FDE0B2FEF7B2FD5D
:10330000002505E0FF20FEF7ADFD7055681C85B275
:10331000BD42F7DB10210248FDF7CCFCBDE8F0818F
:10332000000002402DE9F05F8346894617461E469D
:103330004FEA1738C7F30B0ACAF58054A64200DCDF
:10334000344648E04FEA08324FF480532449584647
:10335000FFF7BEFF002508E00AEB05002049085CE6
:10336000FF2800D003E0681C85B2A542F4DB00BF53
:10337000A54218DA4146584600F0D6F8002507E085
:1033800019F8050005EB0A01154A5054681C85B26E
:10339000A542F5DB4FEA08324FF4805310495846F6
:1033A00000F0E8F805E023463A464946584600F062
:1033B000E1F8A64200D10FE008F101084FF0000A41
:1033C000A1442744301B86B2B6F5805F02DD4FF47E
:1033D000805400E03446B5E700BFBDE8F09F000030
:1033E0009A78002070B50546002410210E48FDF79C
:1033F0005FFC9020FEF736FD0020FEF733FD002035
:10340000FEF730FD0020FEF72DFDFF20FEF72AFD20
:1034100044EA0024FF20FEF725FD04431021024862
:10342000FDF748FC204670BD0000024070B505461F
:10343000002410210748FDF73BFC0520FEF712FD94
:10344000FF20FEF70FFD044610210248FDF732FC75
:10345000204670BD000002402DE9F04106460C46B2
:1034600015461F463B46224629463046FFF730FFA9
:10347000BDE8F0812DE9F04106460C4615461F4691
:103480003B46224629463046FFF74CFFBDE8F08117
:1034900010B5044600BF2046FFF7C8FF00F001004A
:1034A0000028F8D110BD00002DE9F04180460E46FD
:1034B00014461F46404600F027F810211148FDF73A
:1034C000F7FB0220FEF7CEFCC4F30740FEF7CAFC70
:1034D000C4F30720FEF7C6FCE0B2FEF7C3FC0025EC
:1034E00004E0705DFEF7BEFC681C85B2BD42F8DBEF
:1034F00010210448FDF7DEFB4046FFF7C9FFBDE899
:10350000F08100000000024010B50446102105487B
:10351000FDF7CEFB0620FEF7A5FC10210148FDF7C4
:10352000C9FB10BD0000024070B505460C462403DF
:103530002846FFF7E9FF2846FFF7AAFF10210C48AD
:10354000FDF7B6FB2020FEF78DFCC4F30740FEF725
:1035500089FCC4F30720FEF785FCE0B2FEF782FC8D
:1035600010210348FDF7A6FB2846FFF791FF70BD29
:10357000000002402DE9F04180460F4616461C46E9
:10358000F0B2C0F58075AC4200DC254613E02B4656
:10359000324639464046FFF787FFAC4200D10BE088
:1035A0002F442E44601B84B2B4F5807F02DD4FF4BB
:1035B000807500E02546EAE700BFBDE8F081000025
:1035C00010B50446FFF7A0F90820FEF75FFA204681
:1035D000FFF708FF034908800846018802A004F0AD
:1035E000E1FE10BD1A010020666C617368206964F9
:1035F00020697320256400009FED060A80ED000A13
:103600009FED040A80ED010A9FED020A80ED020A97
:10361000704700000000000080ED000AC0ED010AC4
:1036200080ED021A7047000001469FED1B0A81EDF4
:10363000050A9FED1A0A81ED060A9FED190A81ED30
:10364000070A9FED170A81ED080A9FED160A81ED22
:103650000A0A9FED150A81ED0B0AB0EE000A81ED12
:103660000C0AB0EE000A81ED0D0A9FED100A81ED03
:103670000E0A9FED0F0A81ED0F0A9FED0E0A81EDF4
:10368000100AB6EE000A81ED110A9FED0B0A81EDDA
:10369000020A012070470000BD37863517B751393F
:1036A00052499D39CDCC4C3E9A99993ECDCC4C3D5A
:1036B0003333B33FAE4B6E3C0000000010B5044600
:1036C000204604F0BFFA0446002143F2C4300155FD
:1036D000401C0155491EC01C01519FED380A04F5DC
:1036E000505080ED360A9FED350A80ED370A9FED88
:1036F000330A80ED380A002143F2E44001550020EE
:10370000014643F2E8421051101D01510021001DF5
:103710000155401C01550020014643F2F84210516A
:10372000101D0151FEF798F900214FF45452105129
:10373000101D01510020014643F208521051101D86
:1037400001510021001D01550121401C015500219E
:10375000C01C01510121001D01550021401C0155D3
:10376000401C0155401C0155401C01559FED130A9A
:1037700004F5505080ED6E0A9FED100A80ED6F0A3F
:103780004FF4575001510020014643F2C8521051E6
:10379000101D01519FED0A0A43F27840204480ED4C
:1037A0000A0A9FED070A43F27840204480ED0B0A95
:1037B0002046FFF739FF204610BD00000000000042
:1037C00000401C4610B50446204604F082FC044626
:1037D00010BD000070B50446134803F0A5FB124865
:1037E00090ED0D1AD0ED0C0A90ED0B0A04F13401A6
:1037F0000E4801F029FA84ED070AC4ED080A84EDA9
:10380000091A04F11C052946284605F07FFCDFED66
:10381000080A20EE200ADFED070A80EE201ABDEE2E
:10382000C10A84ED0A0A70BDC07700201C00002088
:103830000000C8420000804B10B5044604F134017A
:10384000F2EE040A9FED0B0A204601F0B3F9F0EE08
:10385000000A9FED080A204601F09AF984ED0C0A4F
:10386000DFED050A9FED030A204601F059F984EDCA
:103870000B0A10BD6F12033B9A99993F10B590B097
:103880000446012240211948FDF7D3FD1848FDF7F1
:103890007BF84FF0006001901448001D02900394E3
:1038A0000020049012200590002006904FF48060C4
:1038B00007900020089009904FF480700A904FF410
:1038C00040300B9000200C900D900E900F9001A9AD
:1038D0000748FDF755F9012210210548FDF732F997
:1038E00001210348FDF744F810B010BD001001405D
:1038F00040640240F0B507460C4615461E46384661
:1039000000F0C2F808B90020F0BD6006010E38468C
:1039100000F096F9384600F0E7F820B1384600F09C
:1039200067F80120F0E72946384600F089F9384663
:1039300000F0DAF8384600F0A7F8012000EB440068
:10394000C1B2384600F07CF9384600F0CDF80021CD
:10395000384600F03FF93070384600F049F8002052
:10396000D2E7F0B507460C4615461E46384600F02D
:103970008BF86006010E384600F062F9384600F018
:10398000B3F820B1384600F033F80120F0BD2946E5
:10399000384600F055F9384600F0A6F8314638466A
:1039A00000F04EF9384600F09FF8384600F020F855
:1039B0000020EBE710B5044640200C490880204663
:1039C00000F036F8802009490880204600F030F8E1
:1039D00040200649891E0880204600F029F8402032
:1039E00002490880204600F023F810BD1A04024066
:1039F00010B5044640200D490880204600F018F814
:103A000080200A490880204600F012F8402007492B
:103A1000891E0880204600F00BF880200349891E8B
:103A20000880204600F004F810BD00001A0402408F
:103A300000BF017839B90F2100BF0A00A1F10103CD
:103A4000D9B2FAD100BF704710B5044640200D49E5
:103A500008802046FFF7ECFF80200A49891E088075
:103A60002046FFF7E5FF40200649891E08802046D2
:103A7000FFF7DEFF4020034908802046FFF7D8FF0C
:103A800010BD00001A04024010B5044680201549FC
:103A90000880402008802046FFF7CAFF11480838F8
:103AA000006808B9012000E0002000F0800008B1A3
:103AB000002010BD80200B49891C08802046FFF79C
:103AC000B7FF08480838006800F0800008B10020FF
:103AD000EFE780200349891C08802046FFF7A8FFF4
:103AE0000120E6E71804024030B5054600244020D6
:103AF000154908802846FFF79BFF80201249891E40
:103B000008802846FFF794FF40200F49891E08804F
:103B10002846FFF78DFF08E0601CC4B2322C04DD9C
:103B20002846FFF765FF012030BD07480A380068C6
:103B300000F080000028EFD140200349088028468B
:103B4000FFF776FF0020EFE71A0402402DE9F0436B
:103B500081460D4617469846079C4846FFF794FF56
:103B60006806010E484600F06BF84846FFF7BCFFB8
:103B700028B14846FFF73CFF0120BDE8F0833946F5
:103B8000484600F05DF84846FFF7AEFF4846FFF7AD
:103B90007BFF012000EB4500C1B2484600F050F821
:103BA0004846FFF7A1FF012607E00121484600F043
:103BB00011F804F8010B701CC6B24645F5DB002174
:103BC000484600F007F804F8010B4846FFF710FFDD
:103BD0000020D2E7F0B506460D46082700248020D5
:103BE0001649088016E06006040E40201349891C1F
:103BF00008803046FFF71CFF4020104908803046FF
:103C0000FFF716FF0D480838006800F0800008B183
:103C100044F001043800A7F10101CFB2E3D1402004
:103C20000649891C08801DB13046FFF7C3FE02E03B
:103C30003046FFF709FF2046F0BD0000180402409F
:103C400070B505460C4608261CE040201249088045
:103C50002846FFF7EDFE04F0800020B180200E49D9
:103C6000891E088002E080200B4908806006040E4F
:103C70002846FFF7DDFE40200749891E08802846B8
:103C8000FFF7D6FE3000A6F10101CEB2DDD1402013
:103C90000149088070BD00001A04024010B50446B6
:103CA00004210548FDF706F808210348FDF702F84E
:103CB0001420FEF7C5FC10BD0010024090ED020A72
:103CC000D0ED050A70EE200A90ED081A90ED0C0A6E
:103CD00000EE810AD0ED040A90ED071A60EE810A29
:103CE00090ED0A1A00EE810A80ED0F0A704700007D
:103CF00080ED020AC0ED030A80ED041ADFED161A0A
:103D0000C0ED051ADFED141AC0ED061ADFED121A28
:103D1000C0ED071ADFED101AC0ED081ADFED0E1A1C
:103D2000C0ED091ADFED0C1AC0ED0A1ADFED0A1A10
:103D3000C0ED0B1ADFED081AC0ED0E1ADFED061A02
:103D4000C0ED0F1ADFED041AC0ED0C1ADFED021AF8
:103D5000C0ED001A7047000000000000D0ED0C0A12
:103D600090ED081A41EE000AC0ED0C0AD0ED080AE9
:103D7000C0ED090A7047D0ED0D0A70EEC00AC0ED23
:103D8000080A704710B501211020FCF7E3FF01215C
:103D90004804FCF7EFFF01210820FCF7DBFF0121BD
:103DA0008804FCF7E7FF01210820FCF7D3FF01217D
:103DB0000420FCF7CFFF01212020FCF7FBFF0121AD
:103DC0000220FCF7C7FF01210846FCF7F3FF0121A1
:103DD0001020FCF7BFFF01210348FCF7BBFF0121C6
:103DE0001020FCF7E7FF10BD0100400010B5FFF701
:103DF000C9FF00F0ADFD01F0A9F900F06BFD14481A
:103E0000FFF73CFD1348FFF749FF1348FFF7D8FBC6
:103E10001248FEF7CDFE124801F088FE114800F06E
:103E2000A1F8114800F072FF104804F075FA642000
:103E3000FEF706FC0E4800F037FD6420FEF700FC9C
:103E400014210C4803F03CFA0B4801F05DFC10BD56
:103E50009A880020A800002018010020D404002027
:103E6000080000200C000020D8700020687000209E
:103E7000A9000020C0770020D4730020B7EE000A0C
:103E800080ED000A9FED100A80ED010A9FED0E0AF9
:103E900080ED020A9FED0C0A80ED030AB7EE000ADE
:103EA00080ED040A9FED080A80ED050A9FED060AE1
:103EB00080ED060A9FED040A80ED070AB7EE000ABE
:103EC00080ED080A704700000000000010B50446AD
:103ED0009FED231ADFED220A9FED210A2046FFF70E
:103EE0009BFB04469FED1E1ADFED1D0A9FED1C0A89
:103EF00004F10C00FFF790FBA0F10C049FED181AE1
:103F0000DFED170A9FED160A04F11800FFF784FB96
:103F1000A0F11804B7EE000A84ED000A9FED100A24
:103F200084ED010A9FED0E0A84ED020A9FED0C0A52
:103F300084ED030AB7EE000A84ED040A9FED080A37
:103F400084ED050A9FED060A84ED060A9FED040A3A
:103F500084ED070AB7EE000A84ED080A204610BD7A
:103F60000000000010B50446FDF707FE9FED220A91
:103F70002248FDF715FF9FED200A20481030FDF77D
:103F80000FFF9FED1D0A1D482030FDF709FF9FED33
:103F90001C0A1C48FDF704FF9FED190A1948103050
:103FA000FDF7FEFE9FED160A16482030FDF7F8FEDD
:103FB000B1EE040A1448FDF7F3FEB1EE040A12480C
:103FC0001030FDF7EDFEB1EE040A0F482030FDF78A
:103FD000E7FEB1EE040A0D48FDF7E2FEB1EE040A79
:103FE0000A481030FDF7DCFEB1EE040A0748203025
:103FF000FDF7D6FE10BD000000007A44200300202B
:104000000000B4425003002080030020B0030020D1
:1040100030B52DED0C8B91B00546F0EE408A0020B6
:104020000F9010900B900C900D900E9007900890B0
:1040300009900A9003900490059006909FEDFE0A67
:10404000FE4880ED000A9FEDFE0A80ED010AB6EE03
:10405000040A80ED020A9FEDF80A80ED070A9FED41
:10406000F80A80ED080AB6EE040A80ED090A9FED11
:10407000F50A80ED0E0A9FEDF20A80ED0F0AB7EE09
:10408000000A80ED100AF04890ED010A10EE101AB7
:104090000846FCF785FA41EC1D0B9FEDEC0B53EC49
:1040A000102BFCF79CF941EC1B0BEA4890ED050A3C
:1040B00010EE101A0846FCF773FA41EC1C0B53EC97
:1040C0001B2BFCF7E5F841EC1A0BFCF7ADFA09EEF7
:1040D000100ADFEDE10AB0EE490ADB48FDF780FD8A
:1040E000D94890ED050A10EE101A0846FCF758FA68
:1040F00041EC1D0B9FEDD50B53EC102BFCF76FF92A
:1041000041EC1B0BD34890ED060AB1EE400A10EECD
:10411000101A0846FCF744FA41EC1C0B53EC1B2B1D
:10412000FCF7B6F841EC1A0BFCF77EFA09EE100A20
:10413000DFEDC90AB0EE490AC3481030FDF750FD63
:10414000C14890ED090A10EE101A0846FCF728FA4B
:1041500041EC1D0B9FEDBD0B53EC102BFCF73FF911
:1041600041EC1B0BBB4890ED070AB1EE400A10EE84
:10417000101A0846FCF714FA41EC1C0B53EC1B2BED
:10418000FCF786F841EC1A0BFCF74EFA09EE100A20
:10419000DFEDB10AB0EE490AAB482030FDF720FD53
:1041A0000020009001900290AA4890ED050AAB48CB
:1041B000D0ED000A30EE600A8DED000AA54890EDC2
:1041C000060AA648D0ED010A30EE600AB1EE400AB8
:1041D0008DED010A9F4890ED070AA048D0ED020A34
:1041E00030EE600AB1EE400A8DED020ADDED000A04
:1041F000B0EE600ADFED9A0A9A48FDF7F1FCDDEDBA
:10420000010AB0EE600ADFED960A96481030FDF71D
:10421000E7FCDDED020AB0EE600ADFED910A91489D
:104220002030FDF7DDFC8B4890ED050A8B4880EDD2
:10423000000A884890ED060A884880ED010A854802
:1042400090ED070A854880ED020A7F4890ED000A4C
:104250008548D0ED060AB3EE001A10EE810A7748C1
:1042600080ED030A784890ED040A7F48D0ED0D0AEE
:10427000B3EE001A10EE810A704880ED0A0A724807
:1042800090ED080A7848D0ED140AB3EE001A10EE4B
:10429000810A6A4880ED110A7448C0ED008A9FEDDA
:1042A000740AC8EE800AB0EE608A6E4890ED000A8B
:1042B000B1EE400AC0EE080A6048C0ED050A694840
:1042C00090ED040AB1EE400AC0EE080A5B48C0ED6A
:1042D0000C0A644890ED080AB1EE400AC0EE080AE4
:1042E0005648C0ED130A90ED040AD0ED030A00EE23
:1042F000880A80ED040A90ED0B0AD0ED030A00EE67
:10430000880A80ED0B0A90ED120AD0ED030A00EE48
:10431000880A80ED120A90ED040ADFED560AB4EE29
:10432000E00AF1EE10FA04D89FED520A80ED040A7B
:104330000DE0424890ED040ADFED4F0AB4EEE00ACA
:10434000F1EE10FA03DB9FED4C0A80ED040A3B48C6
:1043500090ED0B0ADFED470AB4EEE00AF1EE10FA39
:1043600004D89FED440A80ED0B0A0DE0334890ED30
:104370000B0ADFED410AB4EEE00AF1EE10FA03DBBE
:104380009FED3D0A80ED0B0A2C4890ED120ADFEDFF
:10439000390AB4EEE00AF1EE10FA04D89FED350ABE
:1043A00080ED120A0DE0254890ED120ADFED320A89
:1043B000B4EEE00AF1EE10FA03DB9FED2F0A80ED78
:1043C000120A2E48407E70B100200AE09FED2C0AB0
:1043D000C0EBC001194A02EB810181ED040A411CC6
:1043E000C8B20328F2DB154890ED000AD0ED030AAD
:1043F00020EE200AD0ED010A90ED041A00EE810AA9
:10440000D0ED020A90ED051A00EE810A80ED060A51
:1044100090ED070AD0ED0A0A20EE200AD0ED080A36
:1044200090ED0B1A00EE810AD0ED090A90ED0C1AFE
:1044300000EE810A26E000003333333E40040020C2
:104440000AD7A339CDCC0C3F200300209A99999923
:104450009999B93FC07700200AD7A33D9404002062
:10446000CDCCCC3E50030020E003002014000020FF
:104470006F12033B0060EAC60060EA46A004002019
:104480000000000080ED0D0A90ED0E0AD0ED110A3B
:1044900020EE200AD0ED0F0A90ED121A00EE810AEC
:1044A000D0ED100A90ED131A00EE810A80ED140A87
:1044B0001FED0D0A80ED140A90ED060AB1EE400AD8
:1044C000D0ED0D0A30EE200AD0ED140A30EE200AAD
:1044D0008DED030A90ED060AD0ED0D0A30EE200AAC
:1044E000D0ED140A30EE600A8DED040A90ED060A54
:1044F000D0ED0D0A30EE600AD0ED140A30EE200A3D
:104500008DED050A90ED060AB1EE400AD0ED0D0AD8
:1045100030EE600AD0ED140A30EE600A8DED060A26
:104520008D4890ED060AB1EE400AD0ED0D0A30EE4E
:10453000200AD0ED140A30EE200A8DED070A90ED26
:10454000060AD0ED0D0A30EE200AD0ED140A30EE46
:10455000600A8DED080A90ED060AD0ED0D0A30EEE6
:10456000600AD0ED140A30EE200A8DED090A90EDB4
:10457000060AB1EE400AD0ED0D0A30EE600AD0ED29
:10458000140A30EE600A8DED0A0A00243AE07348FE
:1045900090ED090A07A800EB8400D0ED000A20EE98
:1045A000200A10EE101A0846FBF7FAFF41EC1C0B2C
:1045B0009FED6B0B53EC102BFBF711FF41EC1A0B2B
:1045C000664890ED090AF7EE000A30EEC00A03A82B
:1045D00000EB8400D0ED000A20EE200A10EE101A45
:1045E0000846FBF7DDFF41EC1B0B53EC1A2BFBF7E6
:1045F0004FFE41EC190BFCF717F80BA941F824000A
:10460000601CC4B2042CC2DB544890ED090ADDEDF5
:104610000B0A20EE200ABDEEC00A10EE100A00B20E
:1046200000EE100AB8EEC00A4F48D0ED000A30EE96
:10463000200ABCEEC00A10EE100A80B2ADF83C00B1
:10464000464890ED090ADDED0C0A20EE200ABDEE89
:10465000C00A10EE100A00B200EE100AB8EEC00A4E
:104660004148D0ED000A30EE200ABCEEC00A10EE40
:10467000100A80B2ADF83E00384890ED090ADDED31
:104680000D0A20EE200ABDEEC00A10EE100A00B29C
:1046900000EE100AB8EEC00A3348D0ED000A30EE42
:1046A000200ABCEEC00A10EE100A80B2ADF840003D
:1046B0002A4890ED090ADDED0E0A20EE200ABDEE33
:1046C000C00A10EE100A00B200EE100AB8EEC00ADE
:1046D0002548D0ED000A30EE200ABCEEC00A10EEEC
:1046E000100A80B2ADF84200002016E00FA931F8A0
:1046F0001010002904DC00210FAA22F810100AE093
:104700000FA931F8101040F2DC52914203DB114640
:104710000FAA22F81010411CC8B20428E6DB0F488B
:1047200090ED040AF7EE000AB4EE600AF1EE10FA1A
:1047300009D0002005E000210FAA22F81010411C2A
:10474000C8B20428F7DB0FA9084800F08FF811B0B1
:10475000BDEC0C8B30BD0000E0030020A004002065
:10476000000000000000C03F4C010020A900002014
:1047700030B589B005460C46A620ADF818000020DB
:10478000ADF81A0040F6C41007900020ADF82000E4
:1047900006A92846FCF7D8FD7020ADF804000120DA
:1047A000ADF806000020ADF808004FF47A700390D1
:1047B0000220ADF810000020ADF81200ADF8140092
:1047C0004FF48070ADF81600012C06D0022C0DD0ED
:1047D000032C14D0042C24D11AE001A92846FCF79C
:1047E0005FFC08212846FCF799FC1AE001A928463D
:1047F000FCF79EFC08212846FCF7ECFC11E001A91F
:104800002846FCF7F5FC08212846FCF741FD08E0A6
:1048100001A92846FCF746FD08212846FCF77EFD45
:1048200000BF00BF01212846FCF72AFC01212846D1
:10483000FCF70EFC01212846FCF716FC4FF47A71B8
:104840000948FCF778FD4FF47A710748FCF775FDCD
:104850004FF47A710448FCF772FD4FF47A71024804
:10486000FCF76FFD09B030BD0000014070B5054692
:104870000C46E08800F57A710A48FCF75CFDA088D8
:1048800000F57A710748FCF758FD608800F57A71E9
:104890000448FCF754FD208800F57A710148FCF7C4
:1048A00050FD70BD0000014010B5044601210848CC
:1048B000FFF75EFF02210648FFF75AFF0321044875
:1048C000FFF756FF04210248FFF752FF10BD00001A
:1048D0000000014008B54FF4A060FCF72FFA262035
:1048E0008DF8000001208DF801008DF802008DF890
:1048F00003006846FCF7E6F927208DF80000002049
:104900008DF8010001208DF802008DF80300684643
:10491000FCF7D8F947208DF8000000208DF8010041
:1049200001208DF802008DF803006846FCF7CAF9F3
:104930003A208DF8000000208DF801008DF802006B
:1049400001208DF803006846FCF7BCF908BD0000A3
:104950001CB50F20009001208DF804008DF8060092
:1049600000208DF805008DF8070069466748FCF7C0
:1049700034F92020009002208DF804008DF8050005
:1049800000208DF8060001208DF807000722052180
:104990005F48FCF76AF969465D48FCF71EF940205C
:1049A000009002208DF804008DF8050001208DF89C
:1049B000060000208DF80700072206215448FCF766
:1049C00054F969465248FCF708F94FF4807000909A
:1049D00002208DF804008DF8050000208DF80600F7
:1049E00001208DF8070069464948FCF7F6F84FF4B6
:1049F0000070009002208DF804008DF80500012061
:104A00008DF8060000208DF8070069464048FCF745
:104A1000E4F84020009002208DF804008DF8050095
:104A200000208DF8060001208DF8070008220621DD
:104A30003848FCF71AF969463648FCF7CEF880206A
:104A4000009002208DF804008DF8050001208DF8FB
:104A5000060000208DF80700082207212D48FCF7EA
:104A600004F969462B48FCF7B8F8C02000900120F3
:104A70008DF804008DF8060003208DF80500002055
:104A80008DF8070069462448FCF7A7F84FF4D44096
:104A9000009002208DF8040003208DF8050000200E
:104AA0008DF8060001208DF8070069461748FCF7CD
:104AB00094F8012209211548FCF7D7F801220B21AF
:104AC0001248FCF7D2F801220D211048FCF7CDF86E
:104AD00001220E210D48FCF7C8F807220A210F48D1
:104AE000FCF7C3F84FF48060009002208DF80400BA
:104AF00000208DF8060003208DF8050000208DF8B9
:104B0000070069460548FCF768F81CBD0010024024
:104B1000000C024000080240000402400000024075
:104B2000B0EE401A71EE201A80EEA10A704770B5FF
:104B30000546049C10461E88761CB6B21E8086422E
:104B400004DD00261E8001265E8007E01E88864266
:104B500001D1002601E01E88761C5E801E8801EBD4
:104B6000860686ED000A5E8801EB8606D6ED000A11
:104B700030EE601A00EE900AF8EE601AC1EE210ADB
:104B800094ED001A70EE810AC4ED000A70BD0000B9
:104B9000B0EE401A9FED060A60EE801AB7EE002ACA
:104BA00082EE210A70EE011A81EE210A70470000A0
:104BB000DB0FC940B0EE401ADFED221A60EEA11AF9
:104BC00061EE811AB7EE002AC2EE212AB0EE620A27
:104BD00060EE001AB0EE082A42EE001AB7EE002A84
:104BE00071EE821AB7EE002AC2EE212AC1ED002A28
:104BF000F0EE001A60EE211A61EE801AB0EE082A7B
:104C000042EE001A20EE002AF0EE082A02EE802A78
:104C1000F7EE002A32EE222AC1EE822AC1ED012AE5
:104C200060EE001AB0EE082A42EE001AB7EE002A33
:104C300071EE821A20EE002AC2EE212AC1ED022A6C
:104C400070470000DB0FC94033B52DED040B8FB06A
:104C500005460C4668469FED2C0A80ED020A80ED61
:104C6000010A80ED000A00BFD4ED020AB0EE600A2E
:104C700004F10C0004F05DFA8DED030ACDED040A99
:104C80008DED051AD4ED010AB0EE600A04F11800AA
:104C900004F04FFA8DED060ACDED070A8DED081AE6
:104CA000D4ED000AB0EE600A0FA804F042FA8DEDD0
:104CB000090ACDED0A0A8DED0B1A06A909A804F020
:104CC0005EFA8DED0C0ACDED0D0A8DED0E1A03A9DD
:104CD0000CA804F0F6F98DED000ACDED010A8DED7A
:104CE000021AD4E90712A069C4E90412E0609DE841
:104CF0000700C4E90712A0619DED000ADDED010A7D
:104D00009DED021A15B030BD0000000010B504463C
:104D1000FCF738FF002019E09FED1C0A04F10C019C
:104D200001EB800181ED000A9FED180A04F14001BA
:104D300001EB800181ED000A9FED140A04F17C0172
:104D400001EB800181ED000A411CC8B20928E3DBB8
:104D5000002009E09FED0D0A04F1640101EB8001E0
:104D600081ED000A411CC8B20628F3DB002009E0EF
:104D70009FED060A04F1300101EB800181ED000A8C
:104D8000411CC8B20428F3DB10BD00000000000085
:104D9000012101709FED1E1A30EE011AC0EE011ABA
:104DA000F0EE610A1B49B1F80C1109B21A4A1180E0
:104DB0001146B1F9001001EE101AB8EEC11A1749E8
:104DC000D1ED001A31EE611AC1EE001AC0ED021ADF
:104DD00090ED021A21EE201AF7EE001A71EEE01A99
:104DE0000F4991ED002A01EE821A80ED021A114658
:104DF000B1F9001001EE101AB8EEC11A074981EDA1
:104E0000001A90ED021A064981ED001A7047000061
:104E100083F9223DD47300208400002090000020FC
:104E2000940000201A490978194A527841EA02216F
:104E3000C1F30A01818016494978C910144A927851
:104E400041EA4211C1F30A01C180114989788911EF
:104E50000F4AD27841EA82010D4A127941EA822151
:104E6000C1F30A0101800A4909794910084A5279B7
:104E700041EAC211C1F30A0141800549497909118A
:104E80008908418102494979C1F3011101817047C3
:104E90009A88002070B52DED028B0446B0EE408A52
:104EA000552529460348FCF7F2FB01202074BDEC90
:104EB000028B70BD0014014010B52DED068B044629
:104EC0002948FCF7DFFB20709FED280AB0EE408AEE
:104ED000207C012806D12078254908700020207008
:104EE00002202074207C02283BD12078204A1278AE
:104EF00000EB022000EE100AB8EEC00A10EE101A05
:104F00000846FBF74DFB41EC1A0B9FED1A0B53ECD7
:104F1000102BFBF7D6FA41EC190BFBF785FB606011
:104F20000020207094ED010ADFED140AB4EEE00ACF
:104F3000F1EE10FA03DD94ED030A84ED010AB7EEF9
:104F4000000A30EE480AD4ED030A20EE200AD4ED20
:104F5000010A00EE880A84ED020A94ED020A84ED4B
:104F6000030ABDEC068B10BD00140140AB90C53E9A
:104F70001C01002000000000000024400000484305
:104F800070B5054608215148FCF7B6FA10B14F48F4
:104F9000FCF778FB4D48008800F08000F0B14B48EA
:104FA0000C30008800F08000C0B1494801780078DA
:104FB000401C474A10704748405C4449091D08801E
:104FC0001046007844490978884207D13F480C30A0
:104FD000008820F080003D490C3108803B48008863
:104FE00000F0200000286FD03848001D0088C4B2AF
:104FF0003A48007838B9AA2C05D101203749087001
:10500000374804705FE035480078012807D1AF2C9D
:1050100005D10220314908703148447053E02F48CF
:105020000078022809D1002C07DDF12C05DA0320D5
:105030002A4908702A48847045E0284800780328E7
:105040000CD1322C0ADA0420244908702448C47098
:105050002448047000202449087034E01F48007878
:10506000042819D11F480078002815DD1D48007854
:10507000401E1C4908701C4800781B490978491CCF
:10508000194A1170001D16490C5416480078D0B901
:1050900005201249087016E01048007805280FD145
:1050A00000200E49087010480078001D0C490C546F
:1050B0000D480078401DC2B20C4801F055FB02E0DB
:1050C00000200649087000BF70BD00000044004089
:1050D000AB000020B0710020AC000020AD0000202B
:1050E000B0720020AE000020AF0000207C730020D2
:1050F00070B50546002440F225510848FCF709FA2E
:1051000058B10648FCF7BEFAC4B22046FCF78CFE44
:1051100040F225510148FCF771F970BD004800408C
:1051200010B5044640F225510648FCF7F2F938B1B3
:105130000548FFF7C1FE40F225510248FCF75EF931
:1051400010BD000000140140AC8800201FB53E488F
:10515000FCF778F93D4800900020ADF80400ADF868
:105160000600ADF80800ADF80C000C20ADF80A0000
:1051700069463548FCF71CFA012240F225513248B5
:10518000FCF7F1F901213048FCF747F93048FCF70A
:1051900059F94FF4165000900020ADF80400ADF816
:1051A0000600ADF80800ADF80C000C20ADF80A00C0
:1051B00069462748FCF7FCF9012240F225512448B2
:1051C000FCF7D1F901212248FCF727F92148FCF727
:1051D00039F94FF4165000900020ADF80400ADF8F6
:1051E0000600ADF80800ADF80C000C20ADF80A0080
:1051F00069461848FCF7DCF9012240F225511548B0
:10520000FCF7B1F901211348FCF707F91248FCF744
:1052100019F9124800900020ADF80400ADF806001E
:105220004FF48060ADF808000420ADF80A000020BB
:10523000ADF80C0069460848FCF7BAF901210648A8
:10524000FCF7EBF81FBD00000044004020A1070060
:10525000004800400014014000100140A0860100F9
:105260002DE9F04106460C46154600200AE0225C76
:105270000C490B780978491C0A4F39700A49CA54FD
:10528000411CC8B2A842F2DB0848008800F0800048
:1052900030B9012240F2277104480C38FCF763F959
:1052A000BDE8F081AC000020B07100200C4400404B
:1052B00010B52DED028B88B0044668460021818030
:1052C0004180018000BF04F1360303220C212046F7
:1052D000FEF710FB04F1370304220C212046FEF7F1
:1052E00009FB94F836103720005D41EA002000B237
:1052F000ADF8020004F1380305220C212046FEF728
:10530000F9FA04F1390306220C212046FEF7F2FADD
:105310003820015D3920005D41EA002000B2ADF87F
:10532000000004F13A0307220C212046FEF7E2FABE
:1053300004F13B0308220C212046FEF7DBFA3A2059
:10534000015D3B20005D41EA0020404200B2ADF823
:105350000400BDF9000000EE100AB8EEC00A84EDAA
:10536000070ABDF9020000EE100AB8EEC00A84ED8B
:10537000080ABDF9040000EE100AB8EEC00A84ED78
:10538000090A04F1280104F11C0003F09AFE84EDDF
:10539000010AC4ED020A84ED031AD4E90812E06997
:1053A000231D07C39FED1C0AB0EE408AF7EE000AEA
:1053B00070EEC80AB0EE600A184603F0BAFE8DED32
:1053C000020ACDED030A8DED041AB0EE480A201D45
:1053D00003F0AFFE8DED050ACDED060A8DED071A3F
:1053E00002A905A803F0CBFE84ED010AC4ED020A70
:1053F00084ED031A201D07C8C4E905122061204668
:1054000000F00CF8012084F83500204600F050F937
:1054100008B0BDEC028B10BD1625723D10B52DED08
:10542000028B8AB004469FED981ADFED970A9FED34
:10543000960A07A803F0E0FD9FED941ADFED930AAA
:105440009FED920A04A803F0D7FD94F834000128D8
:105450007ED18F48007800F0010078B98C4802F0C6
:10546000F4FF58B19FED8B1ADFED8A0A9FED890A90
:10547000894803F0C1FD8648AFF3008094ED010A2E
:10548000F0EEC00A9FED850AF4EEC00AF1EE10FAC4
:105490007ED294ED010AF0EEC00A9FED800AF4EE90
:1054A000C00AF1EE10FA73D294ED010AF0EEC00AD0
:1054B0009FED7A0AF4EEC00AF1EE10FA68D294ED8C
:1054C000070ADDED070A30EE600A10EE101A0846F2
:1054D000FBF766F841EC180B9FED710B53EC102BAA
:1054E000FBF78AF803D294ED070A8DED070A94EDD5
:1054F000080ADDED080A30EE600A10EE101A0846C0
:10550000FBF74EF841EC180B9FED650B53EC102B9D
:10551000FBF772F803D294ED080A8DED070A94EDBB
:10552000090ADDED090A30EE600A10EE101A08468D
:10553000FBF736F841EC180B9FED590B53EC102B91
:10554000FBF75AF803D294ED090A8DED070A00E043
:1055500096E094ED070ADDED040A30EE600A10EEE5
:10556000101A0846FBF71CF841EC180B9FED4C0B8A
:1055700053EC102BFBF728F803D294ED070A8DEDBE
:10558000040A94ED080ADDED050A30EE600A00E039
:1055900029E010EE101A0846FBF702F841EC180B50
:1055A0009FED3F0B53EC102BFBF70EF803D294ED5D
:1055B000080A8DED040A94ED090ADDED060A30EEC5
:1055C000600A10EE101A0846FAF7EAFF41EC180BD1
:1055D0009FED330B53EC102BFAF7F6FF03D294ED4B
:1055E000090A8DED040A30480088401C2E490880C5
:1055F00008460088B0F5FA6F42D104A907A803F065
:10560000BEFD8DED010ACDED020A8DED031AB6EE59
:10561000000A01A803F08DFD1F4880ED000AC0EDCF
:10562000010A80ED021A90ED021AD0ED010A90ED08
:10563000000A1E48FDF732FD1C48FDF75FFC9FED98
:10564000121ADFED110A9FED100A07A803F0E8FC1B
:105650009FED0E1ADFED0D0A9FED0C0A04A803F072
:10566000DFFC9FED0C1ADFED0B0A9FED0A0A0A48DA
:1056700003F0D6FC00200C49088084F8340000BFF9
:105680000AB0BDEC028B10BD00007AC400007A4461
:10569000CC00002000000000707300200000C84310
:1056A0009A9999999999B93FC8000020D40400208B
:1056B00010B5044601230A220C212046FEF751F9B9
:1056C00010BD000010B50446002020700D48007881
:1056D00060B1204600F02CF8204600F0E7F92046A3
:1056E00000F032F800200749087008E0204600F07A
:1056F000C9F9204600F0D1F901200249087001489B
:10570000007810BDE100002010B504460A20FCF727
:1057100097FF204600F0D3F90320FCF791FF2046C5
:1057200000F0D6F984F8FC00204600F0BFF910BD67
:1057300038B50446201D032300227721009020461F
:10574000FEF704FA38BD00002DE9F04F2DED0A8B6D
:1057500087B004464FF00008C14660780104A07885
:1057600041EA0020E1780843606220790104607911
:1057700041EA0020A1790843A062608A616AA1EB36
:105780000025A08900040022218A4FEAE57CA1FBC4
:1057900005BE02FB05E301FB0C334FEADB1141EAD6
:1057A0004361401842EBE312CDE9040260894FEAFD
:1057B000C0304246E1894FEAE57CA1FB05BE02FB11
:1057C00005E301FB0C334FEA1B2141EA036140185A
:1057D00042EB2322CDE90202A08A42464FEAE5715C
:1057E000A0FB053C02FB05C200FB01204FEA402163
:1057F00041EAD3504FF4FA614618B6F5FA6F19DA58
:10580000A6F5FA677F4307EB87004FEA600807EBCE
:1058100087004FEAA0098A4886420BDA06F2DC5775
:105820007F43072000FB078807EB470000EBC7001A
:1058300009EB6009DDE90401B0EB080061EBE871F8
:10584000CDE90401DDE90201B0EB090061EBE9718A
:10585000CDE902014FF00003A26ADDE90201A2FBDB
:1058600000CB03FB00B002FB01004FEA5C5242EAAE
:10587000C02C4FEA6052DDE90410BCEB010162EB81
:105880000002C80B40EA424A6E48A0EB0A0000EE54
:10589000100AB8EEC00ADFED6C0A80EE208A9FED98
:1058A0006B0A28EE000A20EE080A20EE080A654876
:1058B000A0EB0A0000EE900AF8EEE00A9FED641AF1
:1058C00060EE810A9FED631A00EE810ABDEEC00A08
:1058D00010EE10AA60480078B0B15F480078401E12
:1058E0005D49087008460078C82804DA5B480068FB
:1058F00050445A4908605848007828B95748006809
:10590000C82190FBF1F0A061943454F87C0CAAEB10
:10591000000000EE100AB8EEC00ADFED510A20EEDA
:10592000200ABDEEC00A10EE100A00EB8000400015
:10593000A067D4E91E20101A3222504300EE100A4C
:10594000B8EEC00AD4ED1B0A30EE600A10EE101A51
:105950000846FAF725FE9FED430B53EC102BFAF7A0
:105960003EFD41EC1A0B94ED1B0A10EE101A08468E
:10597000FAF716FE53EC1A2BFAF78AFCFAF754FEE4
:10598000E066943C04F584700090D4ED400AB2EED9
:10599000041A60EE810AB0EE600A04F1F8033222C4
:1059A00004F12C013148FFF7C2F8DFED318A94EDA4
:1059B000440AB8EEC00AF7EE000A70EEE80A20EEDC
:1059C000200AD4ED430AF8EEE00A00EEA80ABDEE84
:1059D000C00A84ED430AD4F80C01C4F8100125482C
:1059E0000078C82812DAE6202249087008460078B4
:1059F000401C08709FED200A84ED400A0020C4F886
:105A00000C01C4F8100101201C490870012084F821
:105A10002401D4ED460A00EE106AB8EEC00A9FEDEC
:105A2000181A51EE000A94ED460A9FED151A01EE80
:105A3000200A84ED460A07B0BDEC0A8BBDE8F08F62
:105A400024FAFFFF888A010000007A444B59063C83
:105A5000EC51B83D0000C842E0000020DC0000200E
:105A6000CDCCCC3D806ABC749318D43F1C00002080
:105A70001625723DD800002000000000D90000204B
:105A80000AD7233C38B50446601C03230022772143
:105A900000902046FEF75AF838BD10B504460123A1
:105AA000482277212046FDF75CFF10BD10B5044663
:105AB0000123582277212046FDF753FF10BD10B572
:105AC000044601231E2277212046FDF74AFF10BD20
:105AD0007CB5054600200190002600241DE001A8A9
